:060000000A128A11EA2F2A
:100082000A128A1153200A128A11831603131114B9
:1000920008000A128A1153200A128A1183160313C6
:1000A20011150800831603131419582859285328C8
:1000B20011081F39031D5E285F2853280800F3002A
:1000C2007308F000A0300A128A11B9200A128A11AC
:1000D200F3000130F302031D6F2870286A2808001C
:1000E200F400831203138714740888000714053080
:1000F2000A128A1160200A128A118312031307104E
:100102000800F40083120313871074088800071490
:1001120005300A128A1160200A128A11831203130F
:1001220007100800F0000A128A1153200A128A11DD
:1001320070088312031393008C1DA028A128A52800
:10014200F730FF007F088C0508007E088A007F08D0
:1001520082000A128A11A6200A128A118000840AD9
:1001620004087D0603190034FF0A0319FE0AAA28AF
:10017200F200F101721CBE28BF28C3287008FF00DC
:100182007F08F1070310F00D0310F20C7208031D33
:10019200CB28CC28BB2871080800F401F501701C9B
:1001A200D328D428DA287208F4070318F50A73084A
:1001B200F50701300310F20DF30DFF3E031DDB289E
:1001C20001300310F10CF00CFF3E031DE228700811
:1001D2007104031DED28EE28D0287508F10074087B
:1001E200F00008000F307605F80000307705F900BE
:1001F200760E0F39F000770EF039F004770E0F39D2
:10020200F100F030F11D0030F1040A30F20000304C
:10021200F3000A128A11CE200A128A117808700796
:10022200F60079080318790A7107F70008000A1224
:100232008A1153200A128A118316031391150A1286
:100242008A1153200A128A11831203138C1D2A2940
:100252002B292F29F730FF007F088C051308F000A7
:10026200F1017008F2007108F3000A128A1153209A
:100272000A128A11831603131116720808000A3033
:10028200F0000030F1007908F3007808F2000A1259
:100292008A11F8220A128A117008FA007108FB000A
:1002A200FA0EFB0EF030FB057A080F39FB04F03032
:1002B200FA050A30F0000030F1007908F3007808FE
:1002C200F2000A128A11DA210A128A1170087A07D8
:1002D200F80071080318710A7B07F900080044341A
:1002E200413454343A340034543449344D343A3479
:1002F2000034203450344D340034203441344D34F1
:100302000034183400340134003404340034083426
:1003120000340B3400343B3400343A3400340834B3
:1003220000340734003488340034873400340C3409
:1003320000349334003494340034133400341434CD
:10034200003491340034283083120313940083164E
:10035200031394019101831203135408D800550822
:10036200D9005608DA005708DB0002300310D80D16
:10037200D90DDA0DDB0DFF3E031DB7295B08F30033
:100382005A08F2005908F1005808F0000030F7004E
:10039200F430F6002430F5000030F4000A128A111D
:1003A20092220A128A117008FF3E831603139300E9
:1003B2000800F501F31FDE29DF29E629F209F30916
:1003C200F20A0319F30AF501F50AF11FE929EA29EC
:1003D200EF29F009F109F00A0319F10A7008710412
:1003E2000319F429F529242AF401F40A032A013015
:1003F2000310F00DF10DFF3E031DF9290130FF003E
:100402007F08F407F11F062A072AF82971087302E8
:10041200031D0D2A70087202031C102A112A172AC2
:100422007008F2027108031CF303F3020130031097
:10043200F10CF00CFF3E031D182A0130F402031DDB
:10044200232A242A072A75080319282A292A2E2A48
:10045200F209F309F20A0319F30A7308F1007208A8
:10046200F000080018308316031387008312031369
:10047200870183160313880138300A128A118220F9
:100482000A128A1104300A128A1160200A128A1191
:1004920038300A128A1182200A128A1104300A1292
:1004A2008A1160200A128A1138300A128A118220B7
:1004B2000A128A1104300A128A1160200A128A1161
:1004C20038300A128A1182200A128A1104300A1262
:1004D2008A1160200A128A110C300A128A118220B3
:1004E2000A128A1104300A128A1160200A128A1131
:1004F20006300A128A1182200A128A1104300A1264
:100502008A1160200A128A1101300A128A1182208D
:100512000A128A1104300A128A1160200A128A1100
:1005220008000030FC000030FB000030FA00003010
:10053200F90073087204710470040319A12AA22A33
:10054200EF2AFD01FD0AB22A0130F8000310F00D76
:10055200F10DF20DF30DF80BA72A0130FF007F0811
:10056200FD07F31FB52AB62AA52A0130F8000310A9
:10057200F90DFA0DFB0DFC0DF80BB82A7308770282
:10058200031DCD2A72087602031DCD2A7108750259
:10059200031DCD2A70087402031CD02AD12AE02A36
:1005A2007008F4027108031C710FF5027208031C33
:1005B200720FF6027308031C730FF70279140130ED
:1005C2000310F30CF20CF10CF00CFF3E031DE12AB8
:1005D2000130FD02031DEE2AEF2AB62A7C08F30041
:1005E2007B08F2007A08F1007908F0000800F501B2
:1005F200F11FFC2AFD2A042BF009F109F00A031964
:10060200F10AF501F50AF31F072B082B112BF2094A
:10061200F309F20A0319F30A0130FF007F08F50615
:10062200F601F701700871040319182B192B502BCE
:10063200F401F40A272B01300310F00DF10DFF3EF7
:10064200031D1D2B0130FF007F08F407F11F2A2B29
:100652002B2B1C2B01300310F60DF70DFF3E031D53
:100662002C2B71087302031D382B70087202031CB5
:100672003B2B3C2B432B7008F2027108031CF30343
:10068200F302761401300310F10CF00CFF3E031D4F
:10069200442B0130F402031D4F2B502B2B2B7508DA
:1006A2000319542B552B5A2BF609F709F60A03198D
:1006B200F70A7708F1007608F00008000A128A119A
:1006C20041200A128A11D0300A128A1193200A128A
:1006D2008A1100300A128A1193200A128A11831297
:1006E20003133F08F9003E08F8000A128A1140215C
:1006F2000A128A1178080A128A1193200A128A11A0
:10070200831203133D08F9003C08F8000A128A110B
:1007120040210A128A1178080A128A1193200A12B9
:100722008A11831203133B08F9003A08F8000A12EF
:100732008A1140210A128A11780860380A128A1135
:1007420093200A128A11831203133508F900340820
:10075200F8000A128A1140210A128A1178080A1234
:100762008A1193200A128A11831203133908F9009D
:100772003808F8000A128A1140210A128A117808F0
:100782000A128A1193200A128A118312031337085C
:10079200F9003608F8000A128A1140210A128A1159
:1007A20078080A128A1193200A128A1183120313FB
:1007B2003308F9003208F8000A128A1140210A129D
:1007C2008A1178080A128A1193200A128A110A12CF
:1007D2008A114A200A128A1108009E2C20300A121D
:1007E2008A1171200A128A1153300A128A11712059
:1007F2000A128A1155300A128A1171200A128A11BC
:100802004E300A128A1171200A128A11BA2C203033
:100812000A128A1171200A128A114D300A128A11A3
:1008220071200A128A114F300A128A1171200A129B
:100832008A114E300A128A1171200A128A11BA2CB8
:1008420020300A128A1171200A128A1154300A12B7
:100852008A1171200A128A1155300A128A117120E6
:100862000A128A1145300A128A1171200A128A115B
:10087200BA2C20300A128A1171200A128A115730BA
:100882000A128A1171200A128A1145300A128A113B
:1008920071200A128A1144300A128A1171200A1236
:1008A2008A11BA2C20300A128A1171200A128A1176
:1008B20054300A128A1171200A128A1148300A121F
:1008C2008A1171200A128A1155300A128A11712076
:1008D2000A128A11BA2C20300A128A1171200A12C5
:1008E2008A1146300A128A1171200A128A11523074
:1008F2000A128A1171200A128A1149300A128A11C7
:1009020071200A128A11BA2C20300A128A1171201F
:100912000A128A1153300A128A1171200A128A119C
:1009220041300A128A1171200A128A1154300A12B5
:100932008A1171200A128A11BA2C7608003A031918
:10094200A32CBA2C7508013A0319EF2B033A0319A9
:10095200082C013A0319212C073A03193A2C013ABF
:100962000319532C033A03196C2C013A0319852CF1
:10097200BA2C08000A128A1141200A128A11D030B8
:100982000A128A1193200A128A1100300A128A115D
:1009920093200A128A110A128A114A200A128A1113
:1009A2000A128A1141200A128A11D1300A128A11BE
:1009B20093200A128A110A128A1118210A128A1124
:1009C200FA00FB017A08F6007B08F7000A128A1186
:1009D200F3200A128A11770883120313BF007608E4
:1009E200BE000A128A1118210A128A11FA00FB01AA
:1009F2007A08F6007B08F7000A128A11F3200A121D
:100A02008A11770883120313BD007608BC000A120C
:100A12008A1118210A128A11FA00FB017A08F600DB
:100A22007B08F7000A128A11F3200A128A1177084A
:100A320083120313BB007608BA000A128A11182126
:100A42000A128A11FA00FB017A08F6007B08F70005
:100A52000A128A11F3200A128A11770883120313E9
:100A6200B5007608B4000A128A1118210A128A11F6
:100A7200FA00FB017A08F6007B08F7000A128A11D5
:100A8200F3200A128A11770883120313B900760839
:100A9200B8000A128A1118210A128A11FA00FB01FF
:100AA2007A08F6007B08F7000A128A11F3200A126C
:100AB2008A11770883120313B7007608B6000A1268
:100AC2008A1118210A128A11FA00FB017A08F6002B
:100AD2007B08F7000A128A11F3200A128A1177089A
:100AE20083120313B3007608B2000A128A114A2055
:100AF2000A128A110A128A1141200A128A11D1306D
:100B02000A128A1193200A128A110A128A111821D2
:100B12000A128A110A128A114A200A128A1108003C
:100B22000A128A1133220A128A1100308312031325
:100B3200D7000030D6002730D5001030D4000A127A
:100B42008A11A4210A128A110A128A115F230A1237
:100B52008A110A128A11BB240A128A118312031300
:100B62003B08F9003A08F8000A128A1140210A12D9
:100B72008A111F30780583120313DC0000307905D7
:100B8200DD005C08FA3EDF005D080318013EFF3E0F
:100B9200E00080300A128A1182200A128A1183121E
:100BA2000313E101E201831203136108253E84006D
:100BB200831300080A128A1171200A128A11013065
:100BC20083120313E1070318E20A0030E207620806
:100BD200803AFF0080307F02031DF12D0430610254
:100BE200031CF42DF52DD42D0A30F0000030F10055
:100BF200831203136008F3005F08F2000A128A11DD
:100C0200F8220A128A117008303E0A128A117120E3
:100C12000A128A110A30F0000030F1008312031325
:100C22006008F3005F08F2000A128A11DA210A1240
:100C32008A117008303E0A128A1171200A128A1132
:100C42002D300A128A1171200A128A110A30F0001C
:100C52000030F100831203133D08F3003C08F20058
:100C62000A128A11F8220A128A117008303E0A12F8
:100C72008A1171200A128A110A30F0000030F10044
:100C8200831203133D08F3003C08F2000A128A1192
:100C9200DA210A128A117008303E0A128A11712072
:100CA2000A128A112D300A128A1171200A128A112F
:100CB2000A30F0000030F100831203133F08F30002
:100CC2003E08F2000A128A11F8220A128A117008EA
:100CD200303E0A128A1171200A128A110A30F0007B
:100CE2000030F100831203133F08F3003E08F200C4
:100CF2000A128A11DA210A128A117008303E0A1287
:100D02008A1171200A128A11831203133B08F90017
:100D12003A08F8000A128A1140210A128A11F81AB6
:100D2200932E942EBA2E83120313E101E201831251
:100D3200031361082E3E8400831300080A128A11ED
:100D420071200A128A11013083120313E10703187A
:100D5200E20A0030E2076208803AFF0080307F0238
:100D6200031DB52E03306102031CB82EB92E982E36
:100D7200DF2E83120313E101E201831203136108E0
:100D82002A3E8400831300080A128A1171200A1273
:100D92008A11013083120313E1070318E20A0030BB
:100DA200E2076208803AFF0080307F02031DDB2EDB
:100DB20003306102031CDE2EDF2EBE2EC0300A126B
:100DC2008A1182200A128A1183120313E101E201BD
:100DD200831203136108203E8400831300080A1261
:100DE2008A1171200A128A11013083120313E1075A
:100DF2000318E20A0030E2076208803AFF008030FE
:100E02007F02031D062F04306102031C092F0A2FE3
:100E1200E92E0A30F0000030F10083120313390882
:100E2200F3003808F2000A128A11F8220A128A1113
:100E32007008303E0A128A1171200A128A110A3091
:100E4200F0000030F100831203133908F300380870
:100E5200F2000A128A11DA210A128A117008303E4F
:100E62000A128A1171200A128A112D300A128A116D
:100E720071200A128A110A30F0000030F100831248
:100E820003133708F3003608F2000A128A11F82217
:100E92000A128A117008303E0A128A1171200A124F
:100EA2008A110A30F0000030F10083120313370870
:100EB200F3003608F2000A128A11DA210A128A11A4
:100EC2007008303E0A128A1171200A128A112D30DE
:100ED2000A128A1171200A128A110A30F0000030B7
:100EE200F100831203133308F3003208F2000A12EE
:100EF2008A11F8220A128A117008303E0A128A11E7
:100F020071200A128A110A30F0000030F1008312B7
:100F120003133308F3003208F2000A128A11DA21AD
:100F22000A128A117008303E0A128A1171200A12BE
:100F32008A11831203133B08F9003A08F8000A12D7
:100F42008A1140210A128A11523078058312031342
:100F5200DC0000307905DD005C085D040319B22F66
:100F6200B32FCC2F0130B4070318B50A0030B507F0
:100F72003508803AFF0080307F02031DC22F0830FF
:100F82003402031CC52FC62FCC2F0130831203134A
:100F9200B4000030B500831203133508F60034089C
:100FA200F5000A128A11EE230A128A110330831203
:100FB2000313DE000830DD007630DC00DC0BDF2FAF
:100FC200DD0BDF2FDE0BDF2F0000AA2D0A128A11A4
:100FD200002883135430FD000130FE007030FF0002
:100FE200203084000A128A11AA200A128A11DF0113
:0E0FF200E001E101E20183010A128A11912D52
:00000001FF
