:060000000A128A110E280D
:10000800FE00030EF3000A08F4007F08F5000A1248
:100018008A1116280A128A111128F60183010A1278
:100028008A1140288B1C19281A2837288312031391
:100038000608F600061C2128222833280716063051
:10004800F2001330F100AD30F000F00B2928F10B6D
:100058002928F20B29283028831203130712FD30B0
:10006800FF007F088B057508FF0074088A00730E6F
:100078008300FE0E7E0E09000130831603138600EE
:1000880087017F30FF007F088105831203138601F3
:10009800071090308B00013083120313870603305A
:1000A80083120313A2008A30A1005530A000A00BD0
:1000B8005B28A10B5B28A20B5B284F280A128A1128
:0200C8000E2800
:02400E003A3F37
:00000001FF
