:060000000A128A11EB2F29
:100DF20050344F344F344A34413441345F345234E6
:100E02000034F20083120313871572088800071456
:100E1200C330F100CD30F000F00B0D2FF10B0D2F90
:100E22008312031307100800F200831203138711C1
:100E3200720888000714C330F100CD30F000F00BC7
:100E4200202FF10B202F83120313071008007E08B6
:100E52008A007F0882000A128A1128270A128A1140
:100E62008000840A04087D0603190034FF0A03196E
:100E7200FE0A2C2F0A128A1184270A128A11803044
:100E8200F600F70176080A128A1115270A128A114A
:100E92007708203E8400831300080A128A11022771
:100EA2000A128A110130FF007F08F6070130FF00A5
:100EB2007F08F70708307702031C602F612F432F4A
:100EC200C730F500F70175080A128A1115270A12B0
:100ED2008A117708203E8400831300080A128A11BF
:100EE20002270A128A110130F5020130FF007F0841
:100EF200F70708307702031C7F2F802F642F802F83
:100F02000A128A11002883160313870188013030E0
:100F12000A128A1115270A128A11C330F400CD3041
:100F2200F300F30B922FF40B922F30300A128A1136
:100F320015270A128A11C330F400CD30F300F30BE7
:100F4200A02FF40BA02F30300A128A1115270A1293
:100F52008A11C330F400CD30F300F30BAE2FF40B43
:100F6200AE2F30300A128A1115270A128A11C330A5
:100F7200F400CD30F300F30BBC2FF40BBC2F383050
:100F82000A128A1115270A128A11C330F400CD30D1
:100F9200F300F30BCA2FF40BCA2F0E300A128A1178
:100FA20015270A128A11C330F400CD30F300F30B77
:100FB200D82FF40BD82F01300A128A1115270A12E2
:100FC2008A11C330F400CD30F300F30BE62FF40B9B
:100FD200E62F080083132930FD000630FE00F930A9
:100FE200FF00203084000A128A112C270A128A116B
:0E0FF200F501F601F70183010A128A113B2F67
:02400E003B3F36
:00000001FF
