:060000000A128A11FC2F18
:100F840083120313880108008316031388010800E1
:100F9400013083120313880008000A128A11C6273D
:100FA4000A128A110A128A11CA270A128A110830EF
:100FB400F2009D30F1000530F000F00BDF2FF10B53
:100FC400DF2FF20BDF2FE62F0A128A11C2270A1233
:100FD4008A110830F2009D30F1000530F000F00B6A
:100FE400F12FF10BF12FF20BF12FF82FD42F0A125E
:0C0FF4008A11002883010A128A11CF2FF5
:00000001FF
