:060000000A128A11FC2F18
:100EFE00F0308316031386007F30FF007F088105D4
:100F0E008801C030870083120313860188012030C8
:100F1E008316031398009030831203139800093040
:100F2E0083160313990008000A128A117F270A12EA
:100F3E008A11831203130608F200B12F4130990073
:100F4E00C72F42309900C72F43309900C72F443026
:100F5E009900C72F7208F000F1017108003A0319C9
:100F6E00B92FC72F7008703A0319AE2FC03A031964
:100F7E00AB2F603A0319A82F303A0319A52FC72FAC
:100F8E00C330F100CD30F000F00BCB2FF10BCB2F97
:100F9E00831203138C1ED42FD52FA02F61301A0667
:100FAE00031DDA2FDB2FDE2F04308800A02F6230D6
:100FBE001A06031DE32FE42FE72F02308800A02F1F
:100FCE0063301A06031DEC2FED2FEF2F8801A02F93
:100FDE0064301A06031DF42FF52FF82F0630880003
:100FEE00A02FA02F0A128A11002883010A128A113B
:020FFE009B2F27
:02400E00FE3F73
:00000001FF
