:060000000A128A11FC2F18
:100C34000A128A1141260A128A1183160313911487
:100C440008000A128A1141260A128A118316031314
:100C5400111408000A128A1141260A128A118316F5
:100C64000313111508008316031391160A128A112F
:100C740041260A128A1183160313111608008316DB
:100C840003131419462E472E412E11081F39031D34
:100C94004C2E4D2E412E0800F0000A128A114126D6
:100CA4000A128A1170088312031393008C1D5B2EA1
:100CB4005C2E582EF730FF007F088C058316031333
:100CC400110808000A128A1141260A128A11831691
:100CD4000313911583128C1D702E712E6C2EF73018
:100CE400FF007F088C050A128A1141260A128A1114
:100CF4008312031313080800F2000A128A11232630
:100D04000A128A11A0300A128A114E260A128A1176
:100D140000300A128A114E260A128A1172080A1227
:100D24008A114E260A128A1171080A128A114E2655
:100D34000A128A110A128A112C260A128A11080030
:100D4400F1000A128A1123260A128A11A0300A120B
:100D54008A114E260A128A1100300A128A114E266E
:100D64000A128A1171080A128A114E260A128A116D
:100D74000A128A111A260A128A11A1300A128A1139
:100D84004E260A128A110A128A1164260A128A113C
:100D94000A128A1135260A128A110A128A112C267D
:100DA4000A128A1108002830831203139400831650
:100DB40003139101831203132008A4002108A50042
:100DC4002208A6002308A70002300310A40DA50DD5
:100DD400A60DA70DFF3E031DE72E2708F3002608E6
:100DE400F2002508F1002408F0000030F700F43088
:100DF400F6002430F5000030F4000A128A110D27A1
:100E04000A128A117008FF3E83160313930094019B
:100E14001830870008000030FC000030FB00003070
:100E2400FA000030F90073087204710470040319A5
:100E34001C2F1D2F6A2FFD01FD0A2D2F0130F800F4
:100E44000310F00DF10DF20DF30DF80B222F01300C
:100E5400FF007F08FD07F31F302F312F202F0130B3
:100E6400F8000310F90DFA0DFB0DFC0DF80B332FF0
:100E740073087702031D482F72087602031D482F5A
:100E840071087502031D482F70087402031C4B2F50
:100E94004C2F5B2F7008F4027108031C710FF502CC
:100EA4007208031C720FF6027308031C730FF70217
:100EB400791401300310F30CF20CF10CF00CFF3E2A
:100EC400031D5C2F0130FD02031D692F6A2F312F92
:100ED4007C08F3007B08F2007A08F1007908F0003E
:100EE4000800003083120313A3000130A2008630EF
:100EF400A100A030A0000A128A11D5260A128A1174
:100F0400383083120313AB005030AA005030F10084
:100F140038300A128A117E260A128A110130FF0023
:100F24007F0883120313AA070130FF007F08AB0771
:100F3400343083120313A900F130A800A80BA02FAA
:100F4400A90BA02F831203132A08F1002B080A12FD
:100F54008A117E260A128A110130FF007F0883124B
:100F64000313AA070130FF007F08AB073430831254
:100F74000313A900F130A800A80BBE2FA90BBE2FA4
:100F8400831203132A08F1002B080A128A117E2601
:100F94000A128A11343083120313A900F130A80015
:100FA400A80BD22FA90BD22F383083120313AB0016
:100FB40038300A128A11A2260A128A110130FF005F
:100FC4007F0883120313AB072B080A128A11A22687
:100FD4000A128A110130FF007F0883120313AB0742
:100FE4002B080A128A11A2260A128A11F82F0A1251
:0C0FF4008A11002883010A128A11732F51
:00000001FF
