:060000000A128A11FA2F1A
:100F5E00C0308316031387008801831203138801A0
:100F6E0024308316031398009030831203139800D5
:100F7E00383083160313990008000A128A11AF271E
:100F8E000A128A11831603138C1ECE2FCF2FC92F50
:100F9E00831203131A08F200F3017208F0007308AB
:100FAE00F100E42F40308800C92F10308800C92F7F
:100FBE008801C92F50308800C92F7108003A0319D3
:100FCE00E92FC92F7008413A0319D92F033A031993
:100FDE00DC2F013A0319DF2F073A0319E12FC92F2E
:100FEE000A128A110028F001F10183010A128A11F6
:020FFE00C42FFE
:02400E003B3F36
:00000001FF
