:060000000A128A11F32F21
:100A6A0064008001840A0406031900340406362D42
:100A7A000130F0020030031CF103F1027008710426
:100A8A00031D482D492D3D2D0800F2008312031342
:100A9A008715720888000714FE30FF007F08870553
:100AAA006430F0000030F1000A128A113D250A1262
:100ABA008A110800F200F730FF007F08831203133F
:100ACA008705720888000714FE30FF007F08870533
:100ADA006430F0000030F1000A128A113D250A1232
:100AEA008A110800780883120313AB007708AA005A
:100AFA000A30F0000030F1002B08F3002A08F20057
:100B0A000A128A11E8250A128A117008303E0A125E
:100B1A008A114A250A128A110A30F0000030F100BF
:100B2A00831203132B08F3002A08F2000A128A110F
:100B3A00AE250A128A117008303E0A128A114A2515
:100B4A000A128A1156300A128A114A250A128A1181
:100B5A000800700871040319B32DB42DE32DF401B4
:100B6A00F40AC22D01300310F00DF10DFF3E031DF2
:100B7A00B82D0130FF007F08F407F11FC52DC62DDF
:100B8A00B72D71087302031DCC2D70087202031C65
:100B9A00CF2DD02DD62D7008F2027108031CF30355
:100BAA00F30201300310F10CF00CFF3E031DD72DA8
:100BBA000130F402031DE22DE32DC62D7308F10066
:100BCA007208F0000800F401F501700871040319B5
:100BDA00EF2DF02D272EF601F60AFE2D0130031017
:100BEA00F00DF10DFF3E031DF42D0130FF007F08CB
:100BFA00F607F11F012E022EF32D01300310F40D1A
:100C0A00F50DFF3E031D032E71087302031D0F2EFF
:100C1A0070087202031C122E132E1A2E7008F2028A
:100C2A007108031CF303F302741401300310F10C6E
:100C3A00F00CFF3E031D1B2E0130F602031D262E6B
:100C4A00272E022E7508F1007408F0000800003003
:100C5A00FC000030FB000030FA000030F900701C84
:100C6A00372E382E4F2E7408F9077508031103180A
:100C7A00013E0319412EFA07760803110318013EB3
:100C8A000319482EFB07770803110318013E0319BD
:100C9A004F2EFC070130F8000310F40DF50DF60D88
:100CAA00F70DF80B512E01300310F30CF20CF10C76
:100CBA00F00CFF3E031D592E730872047104700470
:100CCA00031D682E692E342E7C08F3007B08F2007F
:100CDA007A08F1007908F000080000308312031343
:100CEA00BB000030BA000030B9000030B800330849
:100CFA003204310430040319832E842ED12EBC0110
:100D0A00BC0A942E0130FD000310B00DB10DB20DD6
:100D1A00B30DFD0B892E0130FF007F08BC07B31FFE
:100D2A00972E982E872E0130FD000310B80DB90DAD
:100D3A00BA0DBB0DFD0B9A2E33083702031DAF2ED9
:100D4A0032083602031DAF2E31083502031DAF2EBD
:100D5A0030083402031CB22EB32EC22E3008B4025D
:100D6A003108031C310FB5023208031C320FB602D8
:100D7A003308031C330FB702381401300310B30CC5
:100D8A00B20CB10CB00CFF3E031DC32E0130BC02E5
:100D9A00031DD02ED12E982E3B08B3003A08B2007C
:100DAA003908B1003808B00008000130831603136F
:100DBA008500870188018130831203139F008E30DA
:100DCA00831603139F0038300A128A115F250A120C
:100DDA008A116430F0000030F1000A128A113D25B0
:100DEA000A128A1138300A128A115F250A128A11E8
:100DFA006430F0000030F1000A128A113D250A120F
:100E0A008A1138300A128A115F250A128A1164304F
:100E1A00F0000030F1000A128A113D250A128A11E7
:100E2A0038300A128A115F250A128A116430F000DA
:100E3A000030F1000A128A113D250A128A110C307B
:100E4A000A128A115F250A128A116430F0000030F2
:100E5A00F1000A128A113D250A128A1106300A1275
:100E6A008A115F250A128A116430F0000030F100FD
:100E7A000A128A113D250A128A1101300A128A11B0
:100E8A005F250A128A116430F0000030F1000A125C
:100E9A008A113D250A128A1108000A128A11DA26D5
:100EAA000A128A11831203131F151F195D2F5E2F51
:100EBA005A2F1E08BD00BE013D08AE003E08AF0015
:100ECA00831603131E0883120313BD00BE013D08D7
:100EDA00AC003E08AD002F08A9002E08A8002E0875
:100EEA00BE00BD012C083D07A4002D0803182D0AD9
:100EFA003E07A500A601A7010030B3000030B200EA
:100F0A000330B100FF30B0002708F3002608F200D2
:100F1A002508F1002408F0000030F7000030F60040
:100F2A000030F5003030F4000A128A112C260A1219
:100F3A008A11730883120313B7007208B600710886
:100F4A00B5007008B4000A128A1172260A128A11B0
:100F5A00831203133308A3003208A2003108A10048
:100F6A003008A00080300A128A115F250A128A11FD
:100F7A00831203132108F8002008F7000A128A11C5
:100F8A0077250A128A11C0300A128A115F250A12BD
:100F9A008A11831203132808303E0A128A114A253D
:100FAA000A128A1120300A128A114A250A128A1153
:100FBA00831203132C08303E0A128A114A250A1298
:100FCA008A11E830F0000330F1000A128A113D2537
:100FDA000A128A11572F0A128A1100288313203005
:100FEA00840030300A128A1135250A128A118301C7
:060FFA000A128A11522FB9
:02400E003B3F36
:00000001FF
