:060000000A128A11F32F21
:1007900064008001840A0406031900340406C92B8E
:1007A0000130F0020030031CF103F1027008710403
:1007B000031DDB2BDC2BD02B0800F200831203136C
:1007C0008715720888000714FE30FF007F08870530
:1007D0006430F0000030F1000A128A11D0230A12AE
:1007E0008A110800F200F730FF007F08831203131C
:1007F0008705720888000714FE30FF007F08870510
:100800006430F0000030F1000A128A11D0230A127D
:100810008A110800F401F501701C0F2C102C162C05
:100820007208F4070318F50A7308F507013003107E
:10083000F20DF30DFF3E031D172C01300310F10CD8
:10084000F00CFF3E031D1E2C70087104031D292CA3
:100850002A2C0C2C7508F1007408F0000800FA012D
:10086000FB01760877040319362C372C6E2CFC011B
:10087000FC0A452C01300310F60DF70DFF3E031D59
:100880003B2C0130FF007F08FC07F71F482C492C48
:100890003A2C01300310FA0DFB0DFF3E031D4A2CCC
:1008A00077087902031D562C76087802031C592C10
:1008B0005A2C612C7608F8027708031CF903F90218
:1008C0007A1401300310F70CF60CFF3E031D622C66
:1008D0000130FC02031D6D2C6E2C492C7B08F700A7
:1008E0007A08F60008000030FC000030FB00003001
:1008F000FA000030F900701C7E2C7F2C962C7408B6
:10090000F907750803110318013E0319882CFA072B
:10091000760803110318013E03198F2CFB07770893
:1009200003110318013E0319962CFC070130F8004F
:100930000310F40DF50DF60DF70DF80B982C0130A2
:100940000310F30CF20CF10CF00CFF3E031DA02C75
:100950007308720471047004031DAF2CB02C7B2C3F
:100960007C08F3007B08F2007A08F1007908F000B7
:100970000800003083120313C6000030C5000030A9
:10098000C4000030C3003E083D043C043B0403198E
:10099000CA2CCB2C182DC701C70ADB2C0130FD0057
:1009A0000310BB0DBC0DBD0DBE0DFD0BD02C0130D9
:1009B000FF007F08C707BE1FDE2CDF2CCE2C0130C6
:1009C000FD000310C30DC40DC50DC60DFD0BE12CBC
:1009D0003E084202031DF62C3D084102031DF62C81
:1009E0003C084002031DF62C3B083F02031CF92C77
:1009F000FA2C092D3B08BF023C08031C3C0FC00227
:100A00003D08031C3D0FC1023E08031C3E0FC202FD
:100A1000431401300310BE0CBD0CBC0CBB0CFF3EDC
:100A2000031D0A2D0130C702031D172D182DDF2CC1
:100A30004608BE004508BD004408BC004308BB0092
:100A40000800831603138701880101308500813077
:100A5000831203139F008E30831603139F003C30D4
:100A60008312031397002E309500063092005E30FB
:100A700083160313920038300A128A11F2230A12E5
:100A80008A116430F0000030F1000A128A11D0237C
:100A90000A128A1138300A128A11F2230A128A11B4
:100AA0006430F0000030F1000A128A11D0230A12DB
:100AB0008A1138300A128A11F2230A128A1164301C
:100AC000F0000030F1000A128A11D0230A128A11B4
:100AD00038300A128A11F2230A128A116430F000A7
:100AE0000030F1000A128A11D0230A128A110C3048
:100AF0000A128A11F2230A128A116430F0000030BF
:100B0000F1000A128A11D0230A128A1106300A1241
:100B10008A11F2230A128A116430F0000030F100C9
:100B20000A128A11D0230A128A1101300A128A117C
:100B3000F2230A128A116430F0000030F1000A1228
:100B40008A11D0230A128A1108000A128A1121255B
:100B50000A128A118130831203139F001F151F1977
:100B6000B22DB32DAF2D831603131E08831203136A
:100B7000C800C901CA01CB014B08AF004A08AE004A
:100B80004908AD004808AC001E08C800C901CA01E8
:100B9000CB014B08AB004A08AA004908A900480845
:100BA000A8002C08C8002D08C9002E08CA002F086C
:100BB000CB002808CC002908CD002A08CE002B083D
:100BC000CF0008300310CC0DCD0DCE0DCF0DFF3E64
:100BD000031DE22D4C08C8074D0803184D0FF12DD9
:100BE000F22DC9074E0803184E0FF72DF82DCA072E
:100BF0004F0803184F0ACB074B08A3004A08A2006E
:100C00004908A1004808A0000030BE000030BD0027
:100C10000330BC00FF30BB002308F3002208F200C1
:100C20002108F1002008F0000030F7000030F60045
:100C30000130F5005230F4000A128A1173240A12AE
:100C40008A11730883120313C2007208C10071086D
:100C5000C0007008BF000A128A11B9240A128A1152
:100C6000831203133E08A7003D08A6003C08A50018
:100C70003B08A40080300A128A11F2230A128A115A
:100C8000831203132508BC002408BB000A128A1132
:100C90007A260A128A11831203132408C800250831
:100CA000C9002608CA002708CB0002300310CB0C6D
:100CB000CA0CC90CC80CFF3E031D562E48089500EF
:100CC00020080339C80004300310C80DFF3E031D7F
:100CD000642E1708CF3948079700E830F00003303A
:100CE000F1000A128A11D0230A128A11AA2D0A12BF
:100CF0008A110028E830F6000330F700831203134E
:100D00003C08F9003B08F8000A128A112F240A1245
:100D10008A11770883120313B9007608B80064308B
:100D2000F6000030F7003908F1003808F0001830FC
:100D3000F200FC30F3000A128A110A240A128A1106
:100D4000831203133B087007F8003C0803183C0AA1
:100D50007107F9000A128A112F240A128A117708E2
:100D600083120313B7007608B6000A30F60000308D
:100D7000F7003908F1003808F0001830F200FC30B4
:100D8000F3000A128A110A240A128A1170088312C7
:100D90000313BD007108BE003708F1003608F000EB
:100DA0009C30F200FF30F3000A128A110A240A1262
:100DB0008A117008831203133D07BF0071080318DE
:100DC000710A3E07C0003B083F07F8003C080318C3
:100DD0003C0A4007F9000A128A112F240A128A11CC
:100DE000770883120313B5007608B4003908F100C0
:100DF0003808F0001830F200FC30F3000A128A11B3
:100E00000A240A128A11700883120313BD007108A4
:100E1000BE003708F1003608F0009C30F200FF30C9
:100E2000F3000A128A110A240A128A117008831226
:100E300003133D07BF0071080318710A3E07C00085
:100E40003508F1003408F000F630F200FF30F3000E
:100E50000A128A110A240A128A11700883120313D3
:100E60003F07C10071080318710A4007C2003B0820
:100E70004107B2003C0803183C0A4207B300380897
:100E800039040319442F452F682F3808303E0A12C1
:100E90008A11DD230A128A11831203133608303EA9
:100EA0000A128A11DD230A128A11831203133408ED
:100EB000303E0A128A11DD230A128A1183120313AB
:100EC0003208303E0A128A11DD230A128A11F22FEB
:100ED0003608370403196D2F6E2F902F20300A1219
:100EE0008A11DD230A128A11831203133608303E59
:100EF0000A128A11DD230A128A118312031334089D
:100F0000303E0A128A11DD230A128A11831203135A
:100F10003208303E0A128A11DD230A128A11F22F9A
:100F2000340835040319952F962FB52F20300A1257
:100F30008A11DD230A128A1120300A128A11DD2358
:100F40000A128A11831203133408303E0A128A11DE
:100F5000DD230A128A11831203133208303E0A126B
:100F60008A11DD230A128A11F22F32083304031981
:100F7000BA2FBB2FD72F20300A128A11DD230A1275
:100F80008A1120300A128A11DD230A128A112030B8
:100F90000A128A11DD230A128A11831203133208FE
:100FA000303E0A128A11DD230A128A11F22F2030F4
:100FB0000A128A11DD230A128A1120300A128A11BC
:100FC000DD230A128A1120300A128A11DD230A1247
:100FD0008A11831203133208303E0A128A11DD236C
:100FE0000A128A1108008313203084003B300A1251
:100FF0008A11C8230A128A1183010A128A11A52DA7
:02400E003B3F36
:00000001FF
