:060000000A128A11DA2F3A
:100954000A308312031399000D309900080083169E
:10096400031387018801F03086007F30FF007F0881
:1009740081050800C03083160313870020309800D7
:1009840090308312031398002030831603139900C8
:100994000800F20072088312031399001430F10066
:1009A4007930F000F00BD42CF10BD42CD92C0800A6
:1009B4007E088A007F0882000A128A11DA240A1249
:1009C4008A118000840A04087D0603190034FF0A92
:1009D4000319FE0ADE2CF200F101721CF22CF32C36
:1009E400F72C7008FF007F08F1070310F00D0310C7
:1009F400F20C7208031DFF2C002DEF2C7108080067
:100A04000A128A11B1240A128A110A128A11BC2408
:100A14000A128A110F3083120313D5000030D60056
:100A24000530D3000030D4000A128A11CE260A12EF
:100A34008A11162D0A128A11002842344134543482
:100A4400203456344F344C3454343A342034003443
:100A540000340034003400340034003400340034F2
:100A640000340034003400340034003400340034E2
:100A74000034003400344234413454342034483493
:100A840049344734483420342034003400340034AA
:100A94000034003442344134543420344E344F341E
:100AA40052344D3441344C34003400340034003476
:100AB400003442344134543420344C344F345734A9
:100AC4002034203420340034003400340034003422
:100AD400F401F501700871040319712D722DA92D0B
:100AE400F601F60A802D01300310F00DF10DFF3EE2
:100AF400031D762D0130FF007F08F607F11F832DBB
:100B0400842D752D01300310F40DF50DFF3E031DEA
:100B1400852D71087302031D912D70087202031C48
:100B2400942D952D9C2D7008F2027108031CF3037B
:100B3400F302741401300310F10CF00CFF3E031D9A
:100B44009D2D0130F602031DA82DA92D842D7508B5
:100B5400F1007408F00008000A30F0000030F100E1
:100B64007808F3007708F2000A128A116A250A123B
:100B74008A117008FB00FC017B0883120313D10067
:100B84007C08D200F630F00051080A128A11ED24D4
:100B94000A128A117707FB00FC017B0883120313F6
:100BA400CF007C08D0007908FB00FC017B08CD0055
:100BB4007C08CE005108303E0A128A11CB240A1256
:100BC4008A11831203134F08303E0A128A11CB2470
:100BD4000A128A112E300A128A11CB240A128A119F
:100BE400831203134D08303E0A128A11CB240A12D1
:100BF4008A110800003074020F3003197302031CB9
:100C0400042E052E402E00308312031354020530A7
:100C140003195302031C0F2E102E402E00307402B1
:100C2400113003197302031C182E192E292E1130AA
:100C340073067404031D1F2E202E402E0030540210
:100C44000630031953020318282E292E402EFD01C5
:100C54000A307D02031C2F2E302E312E402E7D08AB
:100C64003E3E8400831300080A128A11CB240A1220
:100C74008A110130FF007F08FD072A2E003074021C
:100C8400113003197302031C482E492E842E0030A0
:100C9400831203135402063003195302031C532E08
:100CA400542E842E00307402143003197302031C72
:100CB4005C2E5D2E6D2E143073067404031D632E9A
:100CC400642E842E00305402063003195302031894
:100CD4006C2E6D2E842EFD010A307D02031C732EB2
:100CE400742E752E842E7D082F3E840083130008F5
:100CF4000A128A11CB240A128A110130FF007F08DC
:100D0400FD076E2E00307402143003197302031CA5
:100D14008C2E8D2EC82E00308312031354020630FD
:100D240003195302031C972E982EC82E0030740208
:100D3400163003197302031CA02EA12EB12E1630F7
:100D440073067404031DA72EA82EC82E0030540267
:100D54000630031953020318B02EB12EC82EFD011C
:100D64000A307D02031CB72EB82EB92EC82E7D087A
:100D7400203E8400831300080A128A11CB240A122D
:100D84008A110130FF007F08FD07B22E0A128A1172
:100D9400AA240A128A110800831203130608F039E0
:100DA400D700C32FFD010A307D02031CDA2EDB2E8F
:100DB400DC2EEB2E7D08A03E8400831300080A126B
:100DC4008A11CB240A128A110130FF007F08FD0723
:100DD400D52E831203135608F8005508F70054085B
:100DE400FA005308F9000A128A11AE250A128A1170
:100DF40056300A128A11CB240A128A110A128A1155
:100E0400AA240A128A11831203135608F4005508FF
:100E1400F3000A128A11FC250A128A110630831281
:100E24000313DA001330D900AD30D800D80B182FD3
:100E3400D90B182FDA0B182FD92F0130D307031829
:100E4400D40A0030D407003054020A300319530284
:100E5400031C2D2F2E2F362FD301D4010130D5079B
:100E64000318D60A0030D607163055065604031D5B
:100E74003C2F3D2F4E2F00305402063003195302ED
:100E8400031C452F462F4E2F1630D5000030D600B8
:100E94000530D3000030D4005608F8005508F70098
:100EA4005408FA005308F9000A128A11AE250A12EE
:100EB4008A1156300A128A11CB240A128A11002F81
:100EC4000130D3020030031CD403D4028030540216
:100ED400003003195302031C702F712F7B2F09302C
:100EE400D3000030D4000130D5020030031CD603F7
:100EF400D6020F3055065604031D812F822F932FDF
:100F04000030540205300319530203188A2F8B2F23
:100F1400932F0F30D5000030D6000530D3000030B9
:100F2400D4005608F8005508F7005408FA0053088E
:100F3400F9000A128A11AE250A128A1156300A12D1
:100F44008A11CB240A128A11002F0F30D5000030E9
:100F5400D6000530D3000030D4005608F8005508F8
:100F6400F7005408FA005308F9000A128A11AE2552
:100F74000A128A1156300A128A11CB240A128A11D3
:100F8400002F5708D800D9015908003A0319CB2F6C
:100F9400D92F5808703A0319A72FC03A0319622FA2
:100FA400603A03191F2F303A0319D42ED92F0800A1
:100FB4008313BE30FD000530FE001F30FF00A0305B
:100FC40084000A128A11DE240A128A114D30FD00AF
:100FD4000530FE003D30FF00203084000A128A11E3
:100FE400DE240A128A11CD01CE01CF01D001D10134
:0C0FF400D201FD0183010A128A11022DB6
:02400E003A3F37
:00000001FF
