:100000000A128A11DD2F00308A000408840A820750
:100010000034543449344D343A3400344434413497
:1000200054343A34003420345734453444340034A2
:10003000203454345534453400342034463452345A
:100040004934003420344D344F344E34003420349D
:10005000533455344E340034203453344134543402
:10006000003420345434483455340034203441347E
:0C0070004D340034203450344D34003442
:1002D4000B3400340A128A118A210A128A118316F5
:1002E4000313111408000A128A118A210A128A11AE
:1002F4008316031311150800183400340134003434
:1003040004340034083400343B3400343A340034C8
:100314008316031314198F2990298A2911081F3968
:10032400031D952996298A290800F0000A128A11CA
:100334008A210A128A1170088312031393008C1DF8
:10034400A429A529A1298C1108007E088A007F0808
:1003540082000A128A11A7210A128A118000840AD3
:1003640004087D0603190034FF0A0319FE0AAB29A9
:100374001830831603138700831203138701283070
:100384009400831603139101940127309300831280
:1003940003138715071608000A128A118A210A1204
:1003A4008A1183160313911583128C1DDA29DB2914
:1003B400D6298C110A128A118A210A128A118312EF
:1003C400031313080800F1000A128A116C210A129F
:1003D4008A118312031334080A128A1197210A120C
:1003E4008A1171080A128A1197210A128A110A12B3
:1003F4008A1175210A128A110800F300831203136B
:100404003008FF007F08F304730804380A128A11C5
:10041400E5210A128A117308FB390A128A11E521AF
:100424000A128A114230F200F20B162A0000080068
:10043400F50083120313B0017508F0390A128A110A
:10044400FF210A128A117508F40003300310F40D19
:10045400FF3E031D282A0310740DF0390A128A1175
:10046400FF210A128A110800F50083120313B00158
:10047400B00A7508F0390A128A11FF210A128A118A
:100484007508F40003300310F40DFF3E031D452AE4
:100494000310740DF0390A128A11FF210A128A110D
:1004A4000800F900652A7608BF3E0A128A111A224A
:1004B4000A128A11722A76087F3E0A128A111A22B7
:1004C4000A128A11722A7908F700F8017808003AAA
:1004D40003196D2A5D2A7708023A0319552A5D2A01
:1004E4000800F800F601F7018A2A760878078400E4
:1004F4000A128A1103200A128A110A128A11362258
:100504000A128A110130F6070318F70A0030F707B8
:100514007608780784000A128A1103200A128A11C5
:10052400003A031D962A972A772A0800F401F50158
:10053400701C9D2A9E2AA42A7208F4070318F50A3F
:100544007308F50701300310F20DF30DFF3E031D90
:10055400A52A01300310F10CF00CFF3E031DAC2A58
:1005640070087104031DB72AB82A9A2A7508F10085
:100574007408F00008000F307605F80000307705A5
:10058400F900760E0F39F000770EF039F004770E8B
:100594000F39F100F030F11D0030F1040A30F2009F
:1005A4000030F3000A128A1198220A128A1178087C
:1005B4007007F60079080318790A7107F700080034
:1005C4000A30F0000030F1007908F3007808F200F6
:1005D4000A128A11BA230A128A117008FA007108E1
:1005E400FB00FA0EFB0EF030FB057A080F39FB0412
:1005F400F030FA050A30F0000030F1007908F30019
:100604007808F2000A128A1161230A128A1170080A
:100614007A07F80071080318710A7B07F9000800CB
:10062400442B1F300A128A1173220A128A11602B7A
:100634001A300A128A1173220A128A11602B10309E
:100644000A128A1173220A128A11602B0B300A12C1
:100654008A1173220A128A11602B29300A128A1114
:1006640073220A128A11602B15300A128A1173221E
:100674000A128A11602B24300A128A1173220A1278
:100684008A11602B7A08003A0319492B602B7908E8
:10069400013A0319132B033A03191A2B013A0319CC
:1006A400212B073A0319282B013A03192F2B033A5C
:1006B4000319362B013A03193D2B602B0800F50171
:1006C400F31F652B662B6D2BF209F309F20A03194C
:1006D400F30AF501F50AF11F702B712B762BF00943
:1006E400F109F00A0319F10A7008710403197B2B4C
:1006F4007C2BAB2BF401F40A8A2B01300310F00D90
:10070400F10DFF3E031D802B0130FF007F08F4072D
:10071400F11F8D2B8E2B7F2B71087302031D942BDD
:1007240070087202031C972B982B9E2B7008F20200
:100734007108031CF303F30201300310F10CF00CF5
:10074400FF3E031D9F2B0130F402031DAA2BAB2B8C
:100754008E2B75080319AF2BB02BB52BF209F309B7
:10076400F20A0319F30A7308F1007208F000080092
:10077400F501F11FBE2BBF2BC62BF009F109F00ABE
:100784000319F10AF501F50AF31FC92BCA2BD32B60
:10079400F209F309F20A0319F30A0130FF007F0892
:1007A400F506F601F701700871040319DA2BDB2B47
:1007B400122CF401F40AE92B01300310F00DF10DB1
:1007C400FF3E031DDF2B0130FF007F08F407F11FFC
:1007D400EC2BED2BDE2B01300310F60DF70DFF3E55
:1007E400031DEE2B71087302031DFA2B70087202AD
:1007F400031CFD2BFE2B052C7008F2027108031C50
:10080400F303F302761401300310F10CF00CFF3EF5
:10081400031D062C0130F402031D112C122CED2BA8
:1008240075080319162C172C1C2CF609F709F60A5F
:100834000319F70A7708F1007608F0000800F900B8
:10084400790883120313B40000300A128A11E521D7
:100854000A128A119C30F700D730F600F60B302CC0
:10086400F70B302C03300A128A111A220A128A1149
:100874001A30F700F830F600F60B3E2CF70B3E2C3E
:10088400000003300A128A111A220A128A111A303D
:10089400F700F830F600F60B4D2CF70B4D2C00004A
:1008A40003300A128A111A220A128A111A30F70026
:1008B400F830F600F60B5C2CF70B5C2C00000230D1
:1008C4000A128A111A220A128A111A30F700F83011
:1008D400F600F60B6B2CF70B6B2C000028300A1279
:1008E4008A111A220A128A110230F8000430F70021
:1008F400BA30F600F60B7C2CF70B7C2CF80B7C2C16
:1009040000000C300A128A111A220A128A110230CB
:10091400F8000430F700BA30F600F60B8F2CF70B12
:100924008F2CF80B8F2C000001300A128A111A2226
:100934000A128A110230F8000430F700BA30F600C7
:10094400F60BA22CF70BA22CF80BA22C000008002B
:100954000A128A116C210A128A11D0300A128A11E1
:1009640097210A128A1100300A128A1197210A1259
:100974008A11831203132B08F9002A08F8000A12BB
:100984008A11E2220A128A1178080A128A1197211E
:100994000A128A11831203132908F9002808F8009F
:1009A4000A128A11E2220A128A1178080A128A119A
:1009B40097210A128A117D08F9007C08F8000A12AE
:1009C4008A11E2220A128A11780860380A128A11FE
:1009D40097210A128A11831203132308F9002208AB
:1009E400F8000A128A11E2220A128A1178080A12FD
:1009F4008A1197210A128A11831203132708F90016
:100A04002608F8000A128A11E2220A128A117808CA
:100A14000A128A1197210A128A11831203132508D4
:100A2400F9002408F8000A128A11E2220A128A1133
:100A340078080A128A1197210A128A118312031361
:100A44002108F9002008F8000A128A11E2220A1289
:100A54008A1178080A128A1197210A128A110A1235
:100A64008A1175210A128A1108000A128A116C214E
:100A74000A128A11D0300A128A1197210A128A1195
:100A840000300A128A1197210A128A110A128A1155
:100A940075210A128A110A128A116C210A128A110A
:100AA400D1300A128A1197210A128A110A128A1164
:100AB400CE210A128A11FA00FB017A08F6007B089B
:100AC400F7000A128A11BD220A128A1177088312CA
:100AD4000313AB007608AA000A128A11CE210A1267
:100AE4008A11FA00FB017A08F6007B08F7000A1263
:100AF4008A11BD220A128A11770883120313A900EE
:100B04007608A8000A128A11CE210A128A11FA0064
:100B1400FB017A08F6007B08F7000A128A11BD224D
:100B24000A128A117708FD007608FC000A128A115D
:100B3400CE210A128A11FA00FB017A08F6007B081A
:100B4400F7000A128A11BD220A128A117708831249
:100B54000313A3007608A2000A128A11CE210A12F6
:100B64008A11FA00FB017A08F6007B08F7000A12E2
:100B74008A11BD220A128A11770883120313A7006F
:100B84007608A6000A128A11CE210A128A11FA00E6
:100B9400FB017A08F6007B08F7000A128A11BD22CD
:100BA4000A128A11770883120313A5007608A40099
:100BB4000A128A11CE210A128A11FA00FB017A085C
:100BC400F6007B08F7000A128A11BD220A128A1164
:100BD400770883120313A1007608A0000A128A1171
:100BE40075210A128A110A128A116C210A128A11B9
:100BF400D1300A128A1197210A128A110A128A1113
:100C0400CE210A128A110A128A1175210A128A1136
:100C140008000A128A11BA210A128A114E300A12E5
:100C24008A1121240A128A110A128A11AA240A1288
:100C34008A110A128A1137250A128A117D08F900CD
:100C44007C08F8000A128A11E2220A128A111F3063
:100C5400780583120313B10000307905B20031081E
:100C6400FA3EAC0032080318013EFF3EAD00F60127
:100C7400F60A01300A128A1153220A128A1101302B
:100C84000A128A1173220A128A110A30F000003003
:100C9400F100831203132D08F3002C08F2000A124A
:100CA4008A11BA230A128A117008303E0A128A1174
:100CB40036220A128A110A30F0000030F100831241
:100CC40003132D08F3002C08F2000A128A11612381
:100CD4000A128A117008303E0A128A1136220A1248
:100CE4008A112D300A128A1136220A128A110A3008
:100CF400F0000030F100831203132908F3002808E0
:100D0400F2000A128A11BA230A128A117008303EBC
:100D14000A128A1136220A128A110A30F0000030AF
:100D2400F100831203132908F3002808F2000A12C1
:100D34008A1161230A128A117008303E0A128A113C
:100D440036220A128A112D300A128A1136220A1208
:100D54008A110A30F0000030F100831203132B08CB
:100D6400F3002A08F2000A128A11BA230A128A111D
:100D74007008303E0A128A1136220A128A110A3089
:100D8400F0000030F100831203132B08F3002A084B
:100D9400F2000A128A1161230A128A117008303E85
:100DA4000A128A1136220A128A117D08F9007C0877
:100DB400F8000A128A11E2220A128A11F81AE32EA2
:100DC400E42EEB2E2E300A128A1173220A128A1193
:100DD400F12E32300A128A1173220A128A11F60194
:100DE400F60A02300A128A1153220A128A110630B4
:100DF4000A128A1173220A128A110A30F000003092
:100E0400F100831203132708F3002608F2000A12E4
:100E14008A11BA230A128A117008303E0A128A1102
:100E240036220A128A110A30F0000030F1008312CF
:100E340003132708F3002608F2000A128A1161231B
:100E44000A128A117008303E0A128A1136220A12D6
:100E54008A112D300A128A1136220A128A110A3096
:100E6400F0000030F100831203132508F300240876
:100E7400F2000A128A11BA230A128A117008303E4B
:100E84000A128A1136220A128A110A30F00000303E
:100E9400F100831203132508F3002408F2000A1258
:100EA4008A1161230A128A117008303E0A128A11CB
:100EB40036220A128A112D300A128A1136220A1297
:100EC4008A110A30F0000030F10083120313210864
:100ED400F3002008F2000A128A11BA230A128A11B6
:100EE4007008303E0A128A1136220A128A110A3018
:100EF400F0000030F100831203132108F3002008EE
:100F0400F2000A128A1161230A128A117008303E13
:100F14000A128A1136220A128A117D08F9007C0805
:100F2400F8000A128A11E2220A128A115230780554
:100F340083120313B10000307905B2003108320482
:100F44000319A52FA62FBF2F0130A2070318A30A48
:100F54000030A3072308803AFF0080307F02031D7E
:100F6400B52F08302202031CB82FB92FBF2F013030
:100F740083120313A2000030A30083120313230877
:100F8400FA002208F9000A128A1112230A128A119D
:100F9400023083120313B3000430B200B930B1003D
:100FA400B10BD22FB20BD22FB30BD22FD92F1B2EB2
:100FB4000A128A11002883132C30FD000130FE0030
:100FC4007E30FF00203084000A128A11AB210A12FD
:100FD4008A110A128A116A210A128A11FC000A1261
:100FE4008A116B210A128A11FD00AC01AD01AE0118
:0C0FF400AF01B00183010A128A110B2E1C
:00000001FF
