:060000000A128A11FC2F18
:100F5400F030831603138600C03087007F30FF0013
:100F64007F08810524309800903083120313980081
:100F74003830831603139900831203138601080083
:100F84000A128A11AA270A128A1183120313060865
:100F9400F200F3017208F0007308F100DD2F413014
:100FA4009900F02F42309900F02F43309900F02F30
:100FB40044309900F02F7108003A0319E22FF02F02
:100FC4007008703A0319DA2FC03A0319D72F603A20
:100FD4000319D42F303A0319D12FF02FC330F30063
:100FE400CD30F200F20BF42FF30BF42FC72F0A12BB
:0C0FF4008A11002883010A128A11C22F02
:02400E003B3F36
:00000001FF
