:060000000A128A11CE2F46
:100B5E005234583420343A342034543458342034F7
:100B6E003A3420340130F5020030031CF603F6024D
:100B7E0075087604031DC42DC52DB92D08007E08F9
:100B8E008A007F0882000A128A11C6250A128A116B
:100B9E008000840A04087D0603190034FF0A031935
:100BAE00FE0ACA2DF70083120313871577088800F3
:100BBE000714FE30FF007F0887056430F500003013
:100BCE00F6000A128A11B9250A128A110800F700D6
:100BDE00F730FF007F08831203138705770888001C
:100BEE000714FE30FF007F0887056430F5000030E3
:100BFE00F6000A128A11B9250A128A110800C030AD
:100C0E0083160313870088012030980090308312DA
:100C1E0003139800203083160313990038300A12FC
:100C2E008A11EE250A128A116430F5000030F600A2
:100C3E000A128A11B9250A128A1138300A128A113B
:100C4E00EE250A128A116430F5000030F6000A1201
:100C5E008A11B9250A128A1138300A128A11EE2524
:100C6E000A128A116430F5000030F6000A128A1159
:100C7E00B9250A128A1138300A128A11EE250A1283
:100C8E008A116430F5000030F6000A128A11B92577
:100C9E000A128A110C300A128A11EE250A128A11D2
:100CAE006430F5000030F6000A128A11B9250A12D6
:100CBE008A1106300A128A11EE250A128A11643040
:100CCE00F5000030F6000A128A11B9250A128A11AF
:100CDE0001300A128A11EE250A128A116430F500CB
:100CEE000030F6000A128A11B9250A128A1108007C
:100CFE000A128A1106260A128A11831203138C1EF7
:100D0E00892E8A2E842E41301A06031D8F2E902E88
:100D1E00DA2E80300A128A11EE250A128A11F80193
:100D2E007808203E8400831300080A128A11D92500
:100D3E000A128A110130FF007F08F8070530780289
:100D4E00031CAA2EAB2E972E831203131A080A1217
:100D5E008A11D9250A128A11613083120313990060
:100D6E00C0300A128A11EE250A128A11F80178088B
:100D7E00703E840000080A128A11D9250A128A11BF
:100D8E000130FF007F08F80705307802031CD02ED3
:100D9E00D12EBE2E8312031319080A128A11D925D9
:100DAE000A128A11842E42301A06031DDF2EE02EFF
:100DBE002A2F80300A128A11EE250A128A11F801A2
:100DCE007808203E8400831300080A128A11D92560
:100DDE000A128A110130FF007F08F80705307802E9
:100DEE00031CFA2EFB2EE72E831203131A080A1287
:100DFE008A11D9250A128A116230831203139900BF
:100E0E00C0300A128A11EE250A128A11F8017808EA
:100E1E00703E840000080A128A11D9250A128A111E
:100E2E000130FF007F08F80705307802031C202FE1
:100E3E00212F0E2F8312031319080A128A11D92596
:100E4E000A128A11842E43301A06031D2F2F302FBB
:100E5E007A2F80300A128A11EE250A128A11F801B1
:100E6E007808203E8400831300080A128A11D925BF
:100E7E000A128A110130FF007F08F8070530780248
:100E8E00031C4A2F4B2F372F831203131A080A12F3
:100E9E008A11D9250A128A1163308312031399001D
:100EAE00C0300A128A11EE250A128A11F80178084A
:100EBE00703E840000080A128A11D9250A128A117E
:100ECE000130FF007F08F80705307802031C702FF1
:100EDE00712F5E2F8312031319080A128A11D92556
:100EEE000A128A11842E44301A06031D7F2F802F7A
:100EFE00CA2F80300A128A11EE250A128A11F801C1
:100F0E007808203E8400831300080A128A11D9251E
:100F1E000A128A110130FF007F08F80705307802A7
:100F2E00031C9A2F9B2F872F831203131A080A1262
:100F3E008A11D9250A128A1164308312031399007B
:100F4E00C0300A128A11EE250A128A11F8017808A9
:100F5E00703E840000080A128A11D9250A128A11DD
:100F6E000130FF007F08F80705307802031CC02F00
:100F7E00C12FAE2F8312031319080A128A11D92515
:100F8E000A128A11842E842E0A128A1100288313C3
:100F9E002530FD000530FE00AF30FF00203084000C
:100FAE000A128A11CA250A128A110A128A11B42546
:100FBE000A128A11F0000A128A11B5250A128A1134
:100FCE00F1000A128A11B6250A128A11F2000A12CB
:100FDE008A11B7250A128A11F3000A128A11B8254E
:100FEE000A128A11F400F801F90183010A128A111A
:020FFE007F2E44
:02400E00FE3F73
:00000001FF
