:060000000A128A11FC2F18
:100F22000A128A119F270A128A110A128A11BC27F1
:100F32000A128A11962F0A128A110028FD3083168E
:100F4200031387003C30831203139D002E309B0055
:100F52000630920038308316031392003E30F500BB
:100F62002030F400B730F3001030F2001930F100F5
:100F72001030F00008007508831203139B001D084F
:100F8200CF3974049D004D30F8001930F7004F300E
:100F9200F600F60BCA2FF70BCA2FF80BCA2FD12F68
:100FA2007308831203139B001D08CF3972049D003E
:100FB2004D30F8001930F7004F30F600F60BDF2FF6
:100FC200F70BDF2FF80BDF2FE62F710883120313C5
:100FD2009B001D08CF3970049D004D30F800193078
:100FE200F7004F30F600F60BF42FF70BF42FF80B47
:0E0FF200F42FFB2F080083010A128A11912FA1
:02400E003A3F37
:00000001FF
