:060000000A128A11EC2F28
:100BEA000A308312031399000D3099000800453426
:100BFA006E347434653472343A3420340034F2007A
:100C0A0072088312031399001430F1007930F0004E
:100C1A00F00B0D2EF10B0D2E122E08006E30F8007F
:100C2A001C2E0A128A1138270A128A11F8006E300D
:100C3A0078060319212E222E162E780808007E081F
:100C4A008A007F0882000A128A1124260A128A114F
:100C5A008000840A04087D0603190034FF0A031978
:100C6A00FE0A282EF2008312031307107208880066
:100C7A0087141A30F100F830F000F00B422EF10B15
:100C8A00422E00008312031387100800F200831219
:100C9A00031307147208880087141A30F100F83019
:100CAA00F000F00B562EF10B562E000083120313A0
:100CBA00871008000A128A11B5260A128A11803092
:100CCA000A128A1137260A128A11F501F6018B2EA9
:100CDA007508203E840000080A128A114B260A125F
:100CEA008A117508203E8400831300080A128A11AB
:100CFA0004260A128A110A128A11F5250A128A1181
:100D0A000130F5070318F60A0030F6077508203E89
:100D1A00840083130008031D932E942E6D2EC03079
:100D2A000A128A1137260A128A110A128A111326FE
:100D3A000A128A11F70077080A128A114B260A1238
:100D4A008A1177080A128A1104260A128A110A12CB
:100D5A008A11F5250A128A119A2E0A128A11002876
:100D6A00831603138801831203138801831603135E
:100D7A008701831203138701F03083160313860059
:100D8A008312031386017F30FF007F088316031343
:100D9A00810538300A128A1137260A128A111A3046
:100DAA00F400F830F300F30BD82EF40BD82E000021
:100DBA0038300A128A1137260A128A111A30F400B8
:100DCA00F830F300F30BE72EF40BE72E000038306F
:100DDA000A128A1137260A128A111A30F400F830D8
:100DEA00F300F30BF62EF40BF62E000038300A123D
:100DFA008A1137260A128A111A30F400F830F300E1
:100E0A00F30B052FF40B052F00000C300A128A1180
:100E1A0037260A128A111A30F400F830F300F30B5D
:100E2A00142FF40B142F000006300A128A113726E9
:100E3A000A128A111A30F400F830F300F30B232F48
:100E4A00F40B232F000001300A128A1137260A12E6
:100E5A008A111A30F400F830F300F30B322FF40B36
:100E6A00322F000008008312031306108614061599
:100E7A008615061A412F422F482F061E452F462F48
:100E8A00422F3130EB2F861A4B2F4C2F522F861EB2
:100E9A004F2F502F4C2F3230EB2F061B552F562F2A
:100EAA005C2F061F592F5A2F562F3330EB2F861BD4
:100EBA005F2F602F662F861F632F642F602F4130AC
:100ECA00EB2F0614861006158615061A6D2F6E2F3F
:100EDA00742F061E712F722F6E2F3430EB2F861A45
:100EEA00772F782F7E2F861E7B2F7C2F782F3530F9
:100EFA00EB2F061B812F822F882F061F852F862F07
:100F0A00822F3630EB2F861B8B2F8C2F922F861F2A
:100F1A008F2F902F8C2F4230EB2F06148614061138
:100F2A008615061A992F9A2FA02F061E9D2F9E2FDF
:100F3A009A2F3730EB2F861AA32FA42FAA2F861E9B
:100F4A00A72FA82FA42F3830EB2F061BAD2FAE2FBB
:100F5A00B42F061FB12FB22FAE2F3930EB2F861BBD
:100F6A00B72FB82FBE2F861FBB2FBC2FB82F4330E9
:100F7A00EB2F0614861406158611061AC52FC62FDE
:100F8A00CC2F061EC92FCA2FC62F2A30EB2F861A3E
:100F9A00CF2FD02FD62F861ED32FD42FD02F30303D
:100FAA00EB2F061BD92FDA2FE02F061FDD2FDE2F9E
:100FBA00DA2F2330EB2F861BE32FE42FEA2F861F2D
:100FCA00E72FE82FE42F4430EB2F6E30080083130D
:100FDA002830FD000530FE00FC30FF002030840080
:100FEA000A128A1128260A128A11F701F8018301C6
:060FFA000A128A115F2EAD
:00000001FF
