:060000000A128A11FC2F18
:100F1C008630F8000030F9008730F4000030F5001E
:100F2C000630F6000030F7000730F2000030F30016
:100F3C008130F0000030F1008316031301087F3973
:100F4C008100F03086008701760884008317771CB7
:100F5C0083138001720884008317731C8313800130
:100F6C0008000A128A118E270A128A117608840048
:100F7C008317771C83130008FA00E32F7208840090
:100F8C008317731C831302308000BC2F72088400FB
:100F9C008317731C831304308000BC2F72088400E9
:100FAC008317731C83138001BC2F72088400831772
:100FBC00731C831306308000BC2F7A08FB00FC01E5
:100FCC007C08003A0319EB2FBC2F7B08703A0319ED
:100FDC00DB2FC03A0319D42F603A0319CC2F303AC7
:100FEC000319C42FBC2F0A128A11002883010A127C
:040FFC008A11B72F70
:00000001FF
