:060000000A128A110E280D
:10000800FE00030EF0000A08F1007F08F2000A1251
:100018008A1116280A128A111128F40183010A127A
:100028008A115F28831203138C1D1B281C2839286A
:100038008316031314192128222833288312031343
:100048001308F400141683160313141C2C282D28E7
:100058002728831203131308F400740888008312F6
:100068001416F730FF007F088C057208FF0071082E
:100078008A00700E8300FE0E7E0E0900F3003630F3
:10008800831203139400013083160313910073083D
:1000980093008030940018308700C030FF007F083C
:1000A8008B04F730FF007F08831203138C05831637
:1000B80003138C15080083160313880170300A1285
:1000C8008A1142200A128A1168280A128A110E28F7
:00000001FF
